:100000000C9438000C9455000C9455000C94550039
:100010000C9455000C9455000C9455000C9455000C
:100020000C9455000C9455000C9455000C945500FC
:100030000C9455000C9455000C9455000C945500EC
:100040000C9455000C9455000C9455000C945500DC
:100050000C9455000C9455000C9455000C945500CC
:100060000C9455000C9455000C9455000C945500BC
:1000700011241FBECFEFD0E1DEBFCDBF12E0A0E064
:10008000B1E0EAEEF5E002C005900D92A03DB107A7
:10009000D9F712E0A0EDB2E001C01D92A63DB10774
:1000A000E1F70E94C8010C94F3020C940000E1EC0B
:1000B000F0E08081886180838EE08093C20010929E
:1000C000C5008CE08093C4000895CF93C82F8A3078
:1000D00019F48DE00E946500E0ECF0E0908195FF5E
:1000E000FDCFC093C600CF91089588E00E946500BF
:1000F00080E20E94650088E00E9465000895E0ECBF
:10010000F0E080818823ECF78091C6000895CF93BA
:100110000E947F00C82F0E946500CD3021F48AE044
:100120000E94650004C0CF3711F40E9475008C2F27
:10013000CF910895CF93DF93EC012196FC0180814C
:10014000882329F00E94650089918111FBCFDF91FE
:10015000CF9108950E949A0084E091E00E949A0055
:100160000895EF92FF920F931F93CF93DF93CDB734
:10017000DEB728970FB6F894DEBF0FBECDBFFC01E7
:100180008B309105A8F1CE0101967C0100E010E0D2
:1001900046EF9F01ADECBCEC0E941E029695879540
:1001A00096958795969587950F5F1F4F489FE00D11
:1001B0001124E05DD701ED937D018B30910510F0A6
:1001C000FC01E7CFFE01E00FF11F40E3480F418340
:1001D00011239CF0E1E0F0E0EC0FFD1FE00FF11FB8
:1001E00080810E9465000150110911239CF705C010
:1001F000E05DE98300E010E0EDCF28960FB6F894BB
:10020000DEBF0FBECDBFDF91CF911F910F91FF9049
:10021000EF900895CF93DF93EC0106C08F3711F470
:10022000219702C0888321960E947F008D30B1F70C
:10023000DF91CF910895CF93DF93EC0106C08F3704
:1002400011F4219702C0888321960E9487008D3087
:10025000B1F7DF91CF9108950E947F0087E091E090
:100260000E94AA0083E591E00E94AA0084E691E042
:100270000E94AA0086E991E00E94AA008DEB91E01D
:100280000E94AA0082EE91E00E94AA008CE192E016
:100290000E94AA0086E592E00E94AA0084E892E00B
:1002A0000E94AA0087E091E00E94AA0081E090E00D
:1002B0009093D1028093D0021092D5021092D40272
:1002C00088EE9DEF9093D3028093D20208950F930E
:1002D0001F93CF93DF93EC018B010E948F029C014F
:1002E000B8016C1B7D0B6F5F7F4F8FEF9FE70E9404
:1002F0002D026F5F7F4FC9010E942D02CB018C0F31
:100300009D1F04C0B801CE010E9467012091D40254
:100310003091D50228173907A8F72091D2023091E1
:10032000D3028217930770F7DF91CF911F910F913E
:100330000895CF93DF93EC018DE992E00E949A003B
:10034000CE010E94B100DF91CF910895FC01208180
:10035000223791F42181253691F42281233791F4BB
:100360002381253691F431E020E08481843709F03F
:1003700030E0832F922F089580E090E0089580E090
:1003800090E0089580E090E0089580E090E0089586
:10039000CF93DF93CDB7DEB7A8970FB6F894DEBF43
:1003A0000FBECDBF0E9457008091D0029091D10224
:1003B000892B11F40E942C016091D2027091D3021A
:1003C0008091D4029091D5020E9467018C010E9415
:1003D0009901CE0101960E941B018981883629F47A
:1003E0001093D5020093D402DFCF8C3629F41093FA
:1003F000D3020093D202D8CF893779F48DEA92E004
:100400000E94AA001092D1021092D00283EB92E0D7
:100410000E94AA000E947F00C7CFCE0101960E94D1
:10042000A601892B09F21092D1021092D00283EB1F
:1004300092E00E94AA000E947F00B6CFA29FB00166
:10044000B39FC001A39F700D811D1124911DB29F08
:10045000700D811D1124911D0895AA1BBB1B51E134
:1004600007C0AA1FBB1FA617B70710F0A61BB70B24
:10047000881F991F5A95A9F780959095BC01CD01C9
:1004800008958F929F92AF92BF92CF92DF92EF9298
:10049000FF92CF93DF93EC01688179818A819B8100
:1004A000611571058105910521F464E279ED8BE513
:1004B00097E02DE133EF41E050E00E94B2024901A4
:1004C0005A019B01AC01A7EAB1E40E949F026B01B3
:1004D0007C01ACEEB4EFA50194010E94AD02C60E02
:1004E000D71EE81EF91EF7FE06C081E0C81AD10823
:1004F000E10880E8F80AC882D982EA82FB82C60154
:100500009F77DF91CF91FF90EF90DF90CF90BF90DA
:10051000AF909F908F9008950E944102089580E0CF
:1005200091E00E9441020895A0E0B0E080930001B4
:1005300090930101A0930201B093030108950E94DA
:100540001E02A59F900DB49F900DA49F800D911D3C
:1005500011240895B7FF0C949F020E949F02821BF2
:10056000930B0895052E97FB1EF400940E94C90278
:1005700057FD07D00E94D10207FC03D04EF40C9423
:10058000C90250954095309521953F4F4F4F5F4F91
:10059000089590958095709561957F4F8F4F9F4FEF
:1005A0000895A1E21A2EAA1BBB1BFD010DC0AA1FB4
:1005B000BB1FEE1FFF1FA217B307E407F50720F0CC
:1005C000A21BB30BE40BF50B661F771F881F991F47
:1005D0001A9469F760957095809590959B01AC0190
:0A05E000BD01CF010895F894FFCF8C
:1005EA00010000000D0A00232323232323232323AE
:1005FA0023232323232323232323232323232323C1
:10060A0023232323232323232323232323232323B0
:10061A0023232323232323232323232323232323A0
:10062A002323232323232323232323232323232390
:10063A0023230047616D65204F626A65637469769A
:10064A00653A20005468696E6B206F6620616E7986
:10065A00206E756D626572206C65737320746861B3
:10066A006E206F7220657175616C20746F2036354B
:10067A002C3030302E0054686520636F6D707574AD
:10068A0065722077696C6C207468656E2067756581
:10069A0073732061206E756D6265722E00596F75D5
:1006AA002063616E20726573706F6E64207769745F
:1006BA00682074686520666F6C6C6F77696E673A3C
:1006CA00200068203A20596F7572206E756D626538
:1006DA007220697320686967686572207468616E40
:1006EA0020776861742074686520636F6D70757413
:1006FA00657220677565737365642E006C203A20F5
:10070A00596F7572206E756D626572206973206CFF
:10071A006F776572207468616E20776861742074DF
:10072A00686520636F6D707574657220677565738F
:10073A007365642E200079203A2054686520636F1F
:10074A006D7075746572206775657373656420745E
:10075A00686520636F7272656374206E756D626579
:10076A00722E20007265736574203A205265736593
:10077A0074207468652067616D652E2000497320B6
:10078A00796F7572206E756D6265722000492077E7
:10079A00696E00707265737320616E79206B65797A
:1007AA0020746F20636F6E74696E75652E2E2E002D
:00000001FF
