:100000000C943E000C945B000C945B000C945B0021
:100010000C945B000C945B000C945B000C945B00F4
:100020000C945B000C945B000C945B000C945B00E4
:100030000C945B000C945B000C945B000C945B00D4
:100040000C945B000C945B000C945B000C945B00C4
:100050000C945B000C945B000C945B000C945B00B4
:100060000C945B000C945B000C945B000C945B00A4
:100070006364696E6F70737578585B0011241FBEDE
:10008000CFEFD0E1DEBFCDBF12E0A0E0B1E0E0E510
:10009000F4E102C005900D92A030B107D9F722E03B
:1000A000A0E0B2E001C01D92A830B207E1F70E94C3
:1000B00068010C94260A0C940000CF93DF93CDB70F
:1000C000DEB781EC90E021EC30E0F901208128617D
:1000D000FC01208382EC90E02EE0FC01208385EC83
:1000E00090E0FC01108284EC90E02CE0FC01208385
:1000F00080E091E0909305028093040280910402D5
:10010000909105029093030280930202DF91CF91B8
:100110000895CF93DF9300D01F92CDB7DEB78983C8
:100120007B836A8389818A3039F48A819B81BC010F
:100130008DE00E94890000C0000080EC90E0FC018E
:100140008081882F90E0807299270097B1F386EC28
:1001500090E02981FC01208380E090E00F900F90D7
:100160000F90DF91CF910895CF93DF93CDB7DEB796
:100170008091040290910502BC0188E00E948900F0
:100180008091040290910502BC0180E20E948900E6
:100190008091040290910502BC0188E00E948900D0
:1001A000DF91CF910895CF93DF9300D01F92CDB709
:1001B000DEB79B838A83000080EC90E0FC018081A5
:1001C0008823D4F786EC90E0FC01808189838A81C2
:1001D0009B81BC0189810E94890089818F3711F43C
:1001E0000E94B4008981992787FD90950F900F9008
:1001F0000F90DF91CF910895EF92FF920F931F938D
:10020000CF93DF93CDB7DEB727970FB6F894DEBF55
:100210000FBECDBF0DB71EB78DB79EB77C018889C5
:1002200099890E94EE0389838981882F90E0029644
:100230009C01215031093B832A832DB73EB7281BEF
:10024000390B0FB6F8943EBF0FBE2DBF8DB79EB7CA
:1002500001969D838C838C819D8128893989B90180
:100260000E94E7034C815D818C819D819C01F90195
:1002700001900020E9F7CF010197821B930B840FB7
:10028000951F2AE030E0FC0131832083CE014296A5
:100290009F838E832E813F818C819D81B9010E9435
:1002A0004C040FB6F894FEBE0FBEEDBE0FB6F89428
:1002B0001EBF0FBE0DBF27960FB6F894DEBF0FBE50
:1002C000CDBFDF91CF911F910F91FF90EF900895D7
:1002D000CF93DF93CDB7DEB70E945D000E94F1019E
:1002E00084E290E02FEFFC01208385E290E02FEF85
:1002F000FC0120830E94DF018CE191E00E94FC0060
:1003000081E092E0892F8F9381E092E08F9380E2E9
:1003100091E0892F8F9380E291E08F930E943804BF
:100320000F900F900F900F908AE00E9489008091AB
:1003300001020E949C01DECFCF93DF9300D01F9279
:10034000CDB7DEB78B8380910102992787FD909509
:10035000C0979A83898389819A81009721F081309F
:10036000910521F006C00E94C10105C00E94030250
:1003700002C00E94D4010F900F900F90DF91CF9197
:100380000895CF93DF93CDB7DEB783E291E00E946B
:100390000B0481E391E00E940B0484E491E00E944D
:1003A0000B04DF91CF910895CF93DF93CDB7DEB7E4
:1003B0008AE591E00E940B04DF91CF910895CF93DD
:1003C000DF93CDB7DEB780910002882339F40E9415
:1003D000D30081E0809300020E94C101DF91CF91A0
:1003E0000895CF93DF93CDB7DEB784E290E020EBA2
:1003F000FC0120838CE490E021E5FC0120837894CB
:10040000DF91CF910895EF92FF920F93CF93DF93F7
:1004100000D01F92CDB7DEB78AE691E0892F8F9387
:100420008AE691E08F930E94FC000F900F9081E884
:1004300091E0892F8F9381E891E08F930E94FC00D7
:100440000F900F9085E290E025E230E0F9012081E5
:100450002061FC0120831A82198208C08FEF0E945C
:10046000C90389819A8101969A83898389819A81B6
:100470008C3091059CF385E290E025E230E0F901B3
:10048000308120E12327FC01208381E991E00E9453
:100490000B040F2EF5E9EF2EF12CF02D00E020E0FB
:1004A00040E060E080E00E94E30281E00E944B03B4
:1004B0008B838B81882309F001C0E7CF8FE991E01E
:1004C0000E940B040F2EF7E8EF2EF12CF02D0AEA14
:1004D00021E040E060E088E00E94E30281E00E94C9
:1004E0004B038B838B81882309F001C0E7CF85EA1A
:1004F00091E0892F8F9385EA91E08F930E94FC0011
:100500000F900F90EE24E394F12C00E020E040E007
:1005100060E087E30E94E3028FEF0E94C9038FEF40
:100520000E94C9038FEF0E94C9038FEF0E94C90385
:100530008CEA91E0892F8F938CEA91E08F930E944F
:10054000FC000F900F90EE24E394F12C00E020E0EB
:1005500040E060E489E20E94E30280E00E944B03F5
:100560008B838B81882309F001C0C1CF83EB91E09D
:100570000E940B04EE24E394F12C00E020E040E024
:1005800060E08AE30E94E30281E00E944B038B83D8
:100590008B81882309F001C0E9CF8EEB91E0892F90
:1005A0008F938EEB91E08F930E94FC000F900F9041
:1005B00081E090E00F900F900F90DF91CF910F911D
:1005C000FF90EF900895EF92FF920F93CF93DF93F8
:1005D000CDB7DEB728970FB6F894DEBF0FBECDBFFC
:1005E0008A836B834C832D830E83F886EF828A8106
:1005F000806489838E81E82FF0E08D81682F70E020
:100600008C81482F50E08B81282F30E08981882F02
:1006100090E0A885AF93AF81AF93AF2FAF93EF93E7
:10062000E72FEF936F93652F6F934F93432F4F9364
:100630002F93292F2F938F9389EC91E0892F8F93FC
:1006400089EC91E08F930E94F7038DB79EB70E96C9
:100650000FB6F894DEBF0FBECDBF89810E94C903DB
:100660008B810E94C9038C810E94C9038D810E94E5
:10067000C9038E810E94C9038F810E94C9032896F5
:100680000FB6F894DEBF0FBECDBFDF91CF910F91B3
:10069000FF90EF9008951F93CF93DF93CDB7DEB710
:1006A00027970FB6F894DEBF0FBECDBF8F838FEFB5
:1006B0000E94C90389838FEF0E94C9038A838FEF49
:1006C0000E94C9038B838FEF0E94C9038C838FEF35
:1006D0000E94C9038D838FEF0E94C9038E838E8190
:1006E000A82FB0E08D81E82FF0E08C81682F70E0BA
:1006F0008B81482F50E08A81282F30E08981882F14
:1007000090E01B2F1F93AF93AF2FAF93EF93E72F83
:10071000EF936F93652F6F934F93432F4F932F93C7
:10072000292F2F938F9384EE91E0892F8F9384EE5E
:1007300091E08F930E94F7038DB79EB70E960FB688
:10074000F894DEBF0FBECDBF99818F819817A1F0BD
:100750009A818F81981781F09B818F81981761F022
:100760009C818F81981741F09D818F81981721F08E
:100770009E818F81981711F481E001C080E0279657
:100780000FB6F894DEBF0FBECDBFDF91CF911F91A2
:100790000895CF93DF9300D0CDB7DEB78A838EE480
:1007A00090E02A81FC012083198200008DE490E012
:1007B000FC0180818823D4F78EE490E0FC018081E5
:1007C000898389810F900F90DF91CF910895FB016C
:1007D000DC0101900D920020E1F70895FC010190E9
:1007E0000020E9F7809590958E0F9F1F0895A0E057
:1007F000B0E0EDEFF3E00C94FF09FE013596619156
:100800007191AF0180910402909105020E945504FC
:10081000E2E00C941B0A0F931F93CF93DF93E091B8
:100820000402F0910502238121FF1BC0EC0100E0CE
:1008300010E089916091040270910502DB01189625
:10084000ED91FC911997882331F00995892B89F353
:100850000FEF1FEFEECF8AE00995892B11F4C80145
:1008600002C08FEF9FEFDF91CF911F910F910895FD
:10087000A0E0B0E0EEE3F4E00C94FF09FE01359651
:1008800061917191AF0180910202909103020E94E7
:10089000A507E2E00C941B0AAB01BC0180910402A5
:1008A000909105020E9455040895ACE0B0E0EBE59C
:1008B000F4E00C94EF097C016B018A01FC011782C2
:1008C0001682838181FFBDC1CE0101964C01F701E3
:1008D0009381F60193FD859193FF81916F018823A8
:1008E00009F4ABC1853239F493FD859193FF819171
:1008F0006F01853229F4B70190E00E944309E7CFE8
:10090000512C312C20E02032A0F48B3269F030F4ED
:10091000803259F0833269F420612CC08D3239F075
:10092000803339F4216026C02260246023C028600F
:1009300021C027FD27C030ED380F3A3078F426FF6C
:1009400006C0FAE05F9E300D1124532E13C08AE0DA
:10095000389E300D1124332E20620CC08E3221F4CB
:1009600026FD6BC1206406C08C3611F4206802C0DD
:10097000883641F4F60193FD859193FF81916F01D3
:100980008111C1CF982F9F7D9554933028F40C5F2F
:100990001F4FFFE3F9830DC0833631F0833771F0C9
:1009A000833509F05BC022C0F801808189830E5F26
:1009B0001F4F44244394512C540115C03801F2E0D8
:1009C0006F0E711CF801A080B18026FF03C0652D59
:1009D00070E002C06FEF7FEFC5012C870E94FA081C
:1009E0002C0183012C852F77222E17C03801F2E0CD
:1009F0006F0E711CF801A080B18026FF03C0652D29
:100A000070E002C06FEF7FEFC5012C870E94EF08F6
:100A10002C012C852068222E830123FC1BC0832DF2
:100A200090E048165906B0F4B70180E290E00E94C9
:100A300043093A94F4CFF50127FC859127FE819173
:100A40005F01B70190E00E94430931103A94F1E050
:100A50004F1A51084114510471F7E5C0843611F062
:100A6000893639F5F80127FF07C0608171818281DD
:100A700093810C5F1F4F08C060817181882777FDCB
:100A80008095982F0E5F1F4F2F76B22E97FF09C0CB
:100A900090958095709561957F4F8F4F9F4F2068FF
:100AA000B22E2AE030E0A4010E948E09A82EA818D8
:100AB00044C0853729F42F7EB22E2AE030E025C0CD
:100AC000F22FF97FBF2E8F36C1F018F4883579F0F8
:100AD000B4C0803719F0883721F0AFC02F2F2061C4
:100AE000B22EB4FE0DC08B2D8460B82E09C024FF39
:100AF0000AC09F2F9660B92E06C028E030E005C0DE
:100B000020E130E002C020E132E0F801B7FE07C08A
:100B100060817181828193810C5F1F4F06C060816B
:100B2000718180E090E00E5F1F4FA4010E948E094A
:100B3000A82EA818FB2DFF77BF2EB6FE0BC02B2DBD
:100B40002E7FA51450F4B4FE0AC0B2FC08C02B2DB1
:100B50002E7E05C07A2C2B2D03C07A2C01C0752C5B
:100B600024FF0DC0FE01EA0DF11D8081803311F4D8
:100B7000297E09C022FF06C07394739404C0822F9B
:100B8000867809F0739423FD13C020FF06C05A2C09
:100B9000731418F4530C5718732C731468F4B701BA
:100BA00080E290E02C870E94430973942C85F5CF56
:100BB000731410F4371801C0312C24FF12C0B70190
:100BC00080E390E02C870E9443092C8522FF17C008
:100BD00021FF03C088E590E002C088E790E0B701FC
:100BE0000CC0822F867859F021FD02C080E201C03E
:100BF0008BE227FD8DE2B70190E00E944309A51426
:100C000038F4B70180E390E00E9443095A94F7CF8B
:100C1000AA94F401EA0DF11D8081B70190E00E94D1
:100C20004309A110F5CF332009F451CEB70180E27A
:100C300090E00E9443093A94F6CFF70186819781AC
:100C400002C08FEF9FEF2C96E2E10C940B0A20FD7F
:100C500009C0FC0123FD05C022FF02C0738362832B
:100C600051834083089544FD10C046FD10C0DB0150
:100C7000FC01AA0FBB1FEE1FFF1F1094D1F76A0FD4
:100C80007B1F8E1F9F1F31E003C033E001C034E0A3
:100C9000660F771F881F991F3150D1F7620F711DA2
:100CA000811D911D08950F931F93CF93DF938C01A6
:100CB000C8010E940509EC0197FD08C00E94DC08EC
:100CC000892BB1F7B801CE010E947509CE01DF91E1
:100CD000CF911F910F9108958F929F92AF92CF92D3
:100CE000DF92EF92FF920F931F93CF93DF93EC016C
:100CF000A62E4A01022F0E940509AC0155274B324E
:100D0000510521F04D32510551F40068AA9411F4B7
:100D100080E067C0CE010E94050997FDF9CF102F32
:100D20001D7F302F307301F58033F1F4FF24FA94E6
:100D3000FA0C09F442C0CE010E94050997FD3DC09E
:100D4000382F3F7D383551F41264AA94AA94A9F142
:100D5000CE010E94050997FF07C02FC006FF02C001
:100D6000126001C01261AF2CC12CD12C760120ED94
:100D7000280F283080F014FF04C0BE010E947509BE
:100D800019C02A3040F016FFF8CF2F7D3FEE320F0A
:100D9000363098F72750412FC701B6010E9433061D
:100DA0006B017C011260AA9459F0CE010E940509E2
:100DB00097FFDDCF11FD04C0ABCFC12CD12C760144
:100DC00017FF08C0F094E094D094C094C11CD11CCB
:100DD000E11CF11C212FB701A601C4010E942706C6
:100DE00081E0DF91CF911F910F91FF90EF90DF9005
:100DF000CF90AF909F908F900895A1E2B0E0E3E094
:100E0000F7E00C94F4095C017A018E010F5F1F4F2B
:100E1000680180E2D8011D928A95E9F7F501738097
:100E200040E050E0812CB0E0912C81E090E0F901AD
:100E300073FCA59173FEA1918F017A2F9F01A111DF
:100E400003C080E090E07DC0AE3519F44115510536
:100E500059F1E92DF0E0E417F5073CF4AD3569F1FF
:100E6000AD3219F4BB2319F103C0B11101C08A2EB0
:100E7000E72FE695E695E69586010E0F111DF80120
:100E8000A72FA7708C0102C0000F111FAA95E2F7CF
:100E9000D801B081BA2BB083781559F0781510F4C9
:100EA0007F5FE6CF7150E4CF9924939403C0B1E003
:100EB00001C0B0E04F5F5F4FBACFBB2319F08E8106
:100EC00080628E83911003C09924939415C0F6011B
:100ED000CE018196208120952193E817F907D1F75B
:100EE000F3CFE114F10429F0D7018C93F701319687
:100EF0007F01615001F1912CC50169A30E94050990
:100F000069A197FD16C0282F269526952695F601EE
:100F1000E20FF11D208130E0AC014770552702C07F
:100F2000359527954A95E2F720FDDBCFB5010E9464
:100F30007509911086CFE114F10411F0D7011C92CC
:100F4000C801A196EDE00C94100A4F925F927F9237
:100F50008F929F92AF92BF92CF92DF92EF92FF92C9
:100F60000F931F93CF93DF931F92CDB7DEB78C0102
:100F70002B017A01FC0117821682A12CF801D38083
:100F8000F201D3FC8591D3FE8191382F2F01882364
:100F900009F4FCC090E039830E94DC083981892B78
:100FA00021F0C8010E945306E9CF353241F4F20125
:100FB000D3FC3591D3FE31912F01353269F4C8014C
:100FC00039830E940509398197FDDEC03817B1F2D7
:100FD000B8010E947509DAC03A3241F4D3FC359168
:100FE000D3FE31912F01BB24B39401C0B12C712CDD
:100FF00020ED230F2A3090F4FB2DF260BF2E672DD9
:1010000070E080E090E040E20E943306762EF2012C
:10101000D3FC3591D3FE31912F01EACFB1FE03C04D
:10102000711003C0B3C077247A94383619F03C3677
:1010300061F014C0F201D3FC3591D3FE31912F0140
:10104000383661F4FB2DF860BF2E8B2D8460B82EEE
:10105000F201D3FC3591D3FE31912F01332309F4F2
:1010600095C0632F70E080E790E039830E94E40828
:101070003981892B09F48AC0B0FC07C0F701C08010
:10108000D180C70102967C0102C0C12CD12C3E3612
:1010900051F4F8014681578160E070E02B2DC601C4
:1010A0000E9427066BCF3336A1F4B1FC02C077242F
:1010B0007394C8010E94050997FD66C0C114D1044C
:1010C00029F0F6018083C60101966C017A9489F7B4
:1010D00057C03B3559F49201A601672DC8010E9403
:1010E000FD062C01009709F04BC045C0C8013983AB
:1010F0000E945306398197FD47C03F3669F128F4B5
:10110000343631F1393679F12BC0333769F0353760
:10111000F9F026C0C114D10429F0F6018082C6017D
:1011200001966C017A9471F0C8010E9405094C0186
:1011300097FD08C00E94DC08892B61F3B801C40147
:101140000E947509C114D104D9F0F601108218C0AB
:10115000FB2DF062BF2E07C08B2D8061B82E03C01F
:101160009B2D9064B92E2B2DA601672DC8010E94DE
:101170006C06811105C0F8018381807329F406C0D3
:10118000B0FCFCCEA394FACEAA2019F08A2D90E0F0
:1011900002C08FEF9FEF0F90DF91CF911F910F91C2
:1011A000FF90EF90DF90CF90BF90AF909F908F9087
:1011B0007F905F904F90089591110EC1803219F089
:1011C00089508550D0F70895FC010590061621F04E
:1011D0000020D9F7C00108953197CF010895FC018F
:1011E0000590615070400110D8F7809590958E0F52
:1011F0009F1F0895FC016150704001900110D8F7C5
:10120000809590958E0F9F1F0895CF93DF93EC01EB
:101210002B8120FF33C026FF0AC02F7B2B838E81BA
:101220009F8101969F838E838A8190E029C022FF4F
:101230000FC0E881F9818081992787FD90950097FB
:1012400019F420622B831AC03196F983E8830EC00B
:10125000EA85FB85099597FF09C02B81019611F45A
:1012600080E101C080E2822B8B8308C02E813F8108
:101270002F5F3F4F3F832E83992702C08FEF9FEF51
:10128000DF91CF9108950F931F93CF93DF93182F82
:10129000092FEB018B8181FD03C08FEF9FEF20C0F1
:1012A00082FF10C04E815F812C813D814217530720
:1012B0007CF4E881F9819F012F5F3F4F39832883B8
:1012C000108306C0E885F985812F0995892B29F7B8
:1012D0002E813F812F5F3F4F3F832E83812F902FA1
:1012E000DF91CF911F910F910895FB01238120FF82
:1012F00012C026FD10C08F3F3FEF930761F082833D
:101300002F7D206423832681378121503109378343
:101310002683992708958FEF9FEF0895FA01AA2752
:10132000283051F1203181F1E8946F936E7F6E5F28
:101330007F4F8F4F9F4FAF4FB1E03ED0B4E03CD0D6
:10134000670F781F891F9A1FA11D680F791F8A1FB9
:10135000911DA11D6A0F711D811D911DA11D20D020
:1013600009F468943F912AE0269F11243019305DDA
:101370003193DEF6CF010895462F4770405D4193CB
:10138000B3E00FD0C9F7F6CF462F4F70405D4A3318
:1013900018F0495D31FD4052419302D0A9F7EACFE0
:1013A000B4E0A6959795879577956795BA95C9F70F
:1013B00000976105710508959B01AC010A2E069402
:1013C0005795479537952795BA95C9F7620F731FBB
:1013D000841F951FA01D08959927882708952F928F
:1013E0003F924F925F926F927F928F929F92AF92B5
:1013F000BF92CF92DF92EF92FF920F931F93CF9302
:10140000DF93CDB7DEB7CA1BDB0B0FB6F894DEBF98
:101410000FBECDBF09942A88398848885F846E84BE
:101420007D848C849B84AA84B984C884DF80EE8008
:10143000FD800C811B81AA81B981CE0FD11D0FB611
:10144000F894DEBF0FBECDBFED010895F894FFCF35
:1014500000000003000000008900D300000000002D
:101460000003000000008900D30000003E3E200081
:10147000256300436F6D6D616E64204C6973743A2F
:1014800000303A205072696E742074686973206C61
:1014900069737400313A20496E697469616C697AC4
:1014A00065207364206361726400496E76616C69C3
:1014B0006420636F6D6D616E6400436F6E6E656373
:1014C00074696E6720746F20534420436172640A0C
:1014D0000053796E63696E6720636C6F636B730A88
:1014E00000476F2069646C65207374617465004304
:1014F0006D64203800436D6420353500436D6420F1
:10150000343100436F6D6D616E6420353800436186
:1015100072642072656164790053656E64696E67F8
:1015200020257820257820257820257820257820EA
:1015300025780A00726563656976656420257820E0
:1015400025782025782025782025782025780A0000
:00000001FF
